F1001LPC0124042404046    01PFP               0000000500B         COT       0000000079202404240                                                                                                                                                            
F1001LPC0124042406001    01PFQ               0000000300B         COT       0000000002202404250                                                                                                                                                            
F1001LPC0124042403058    01PFH               0000000300B         COT       0000000146202404260                                                                                                                                                            
F1001LPC0124042407001    02KXU               0000000500B         COT       0000000025202404270                                                                                                                                                            
F1001LPC0124042408001    02KXV               0000000400B         COT       0000000040202404280                                                                                                                                                            
